{
  "contractName": "Subscriber",
  "abi": [
    {
      "constant": true,
      "inputs": [],
      "name": "coordinator",
      "outputs": [
        {
          "name": "",
          "type": "address"
        }
      ],
      "payable": false,
      "stateMutability": "view",
      "type": "function"
    },
    {
      "constant": true,
      "inputs": [],
      "name": "owner",
      "outputs": [
        {
          "name": "",
          "type": "address"
        }
      ],
      "payable": false,
      "stateMutability": "view",
      "type": "function"
    },
    {
      "inputs": [
        {
          "name": "_coordinator",
          "type": "address"
        },
        {
          "name": "_provider",
          "type": "address"
        },
        {
          "name": "_endpoint",
          "type": "bytes32"
        }
      ],
      "payable": false,
      "stateMutability": "nonpayable",
      "type": "constructor"
    },
    {
      "anonymous": false,
      "inputs": [
        {
          "indexed": true,
          "name": "id",
          "type": "uint256"
        },
        {
          "indexed": true,
          "name": "result",
          "type": "int256"
        }
      ],
      "name": "ReceiveResponse",
      "type": "event"
    },
    {
      "constant": false,
      "inputs": [
        {
          "name": "amount",
          "type": "uint256"
        }
      ],
      "name": "approve",
      "outputs": [
        {
          "name": "",
          "type": "bool"
        }
      ],
      "payable": false,
      "stateMutability": "nonpayable",
      "type": "function"
    },
    {
      "constant": false,
      "inputs": [
        {
          "name": "dots",
          "type": "uint256"
        }
      ],
      "name": "bond",
      "outputs": [],
      "payable": false,
      "stateMutability": "nonpayable",
      "type": "function"
    },
    {
      "constant": false,
      "inputs": [
        {
          "name": "dots",
          "type": "uint256"
        }
      ],
      "name": "unbond",
      "outputs": [],
      "payable": false,
      "stateMutability": "nonpayable",
      "type": "function"
    },
    {
      "constant": false,
      "inputs": [
        {
          "name": "queryString",
          "type": "string"
        },
        {
          "name": "params",
          "type": "bytes32[]"
        }
      ],
      "name": "query",
      "outputs": [
        {
          "name": "",
          "type": "uint256"
        }
      ],
      "payable": false,
      "stateMutability": "nonpayable",
      "type": "function"
    },
    {
      "constant": false,
      "inputs": [
        {
          "name": "_id",
          "type": "uint256"
        },
        {
          "name": "_response",
          "type": "int256"
        }
      ],
      "name": "callback",
      "outputs": [],
      "payable": false,
      "stateMutability": "nonpayable",
      "type": "function"
    }
  ],
  "bytecode": "0x608060405234801561001057600080fd5b50604051606080610e2b8339810180604052606081101561003057600080fd5b81019080805190602001909291908051906020019092919080519060200190929190505050336000806101000a81548173ffffffffffffffffffffffffffffffffffffffff021916908373ffffffffffffffffffffffffffffffffffffffff16021790555082600160006101000a81548173ffffffffffffffffffffffffffffffffffffffff021916908373ffffffffffffffffffffffffffffffffffffffff16021790555081600260006101000a81548173ffffffffffffffffffffffffffffffffffffffff021916908373ffffffffffffffffffffffffffffffffffffffff16021790555080600381905550505050610cfb806101306000396000f3fe608060405234801561001057600080fd5b506004361061007d5760003560e01c80638da5cb5b1161005b5780638da5cb5b1461025d5780639940686e146102a7578063b759f954146102d5578063cf9b96671461031b5761007d565b80630a009097146100825780630c6fbeea146100cc57806327de9e321461022f575b600080fd5b61008a610353565b604051808273ffffffffffffffffffffffffffffffffffffffff1673ffffffffffffffffffffffffffffffffffffffff16815260200191505060405180910390f35b610219600480360360408110156100e257600080fd5b81019080803590602001906401000000008111156100ff57600080fd5b82018360208201111561011157600080fd5b8035906020019184600183028401116401000000008311171561013357600080fd5b91908080601f016020809104026020016040519081016040528093929190818152602001838380828437600081840152601f19601f8201169050808301925050505050505091929192908035906020019064010000000081111561019657600080fd5b8201836020820111156101a857600080fd5b803590602001918460208302840111640100000000831117156101ca57600080fd5b919080806020026020016040519081016040528093929190818152602001838360200280828437600081840152601f19601f820116905080830192505050505050509192919290505050610379565b6040518082815260200191505060405180910390f35b61025b6004803603602081101561024557600080fd5b810190808035906020019092919050505061060b565b005b6102656107bd565b604051808273ffffffffffffffffffffffffffffffffffffffff1673ffffffffffffffffffffffffffffffffffffffff16815260200191505060405180910390f35b6102d3600480360360208110156102bd57600080fd5b81019080803590602001909291905050506107e2565b005b610301600480360360208110156102eb57600080fd5b8101908080359060200190929190505050610994565b604051808215151515815260200191505060405180910390f35b6103516004803603604081101561033157600080fd5b810190808035906020019092919080359060200190929190505050610c26565b005b600160009054906101000a900473ffffffffffffffffffffffffffffffffffffffff1681565b600080600160009054906101000a900473ffffffffffffffffffffffffffffffffffffffff1673ffffffffffffffffffffffffffffffffffffffff1663358177736040518163ffffffff1660e01b81526004018080602001828103825260088152602001807f444953504154434800000000000000000000000000000000000000000000000081525060200191505060206040518083038186803b15801561042057600080fd5b505afa158015610434573d6000803e3d6000fd5b505050506040513d602081101561044a57600080fd5b810190808051906020019092919050505090508073ffffffffffffffffffffffffffffffffffffffff16637de7cc66600260009054906101000a900473ffffffffffffffffffffffffffffffffffffffff1686600354876040518563ffffffff1660e01b8152600401808573ffffffffffffffffffffffffffffffffffffffff1673ffffffffffffffffffffffffffffffffffffffff1681526020018060200184815260200180602001838103835286818151815260200191508051906020019080838360005b8381101561052c578082015181840152602081019050610511565b50505050905090810190601f1680156105595780820380516001836020036101000a031916815260200191505b50838103825284818151815260200191508051906020019060200280838360005b8381101561059557808201518184015260208101905061057a565b505050509050019650505050505050602060405180830381600087803b1580156105be57600080fd5b505af11580156105d2573d6000803e3d6000fd5b505050506040513d60208110156105e857600080fd5b810190808051906020019092919050505060048190555060045491505092915050565b6000600160009054906101000a900473ffffffffffffffffffffffffffffffffffffffff1673ffffffffffffffffffffffffffffffffffffffff1663358177736040518163ffffffff1660e01b81526004018080602001828103825260078152602001807f424f4e444147450000000000000000000000000000000000000000000000000081525060200191505060206040518083038186803b1580156106b157600080fd5b505afa1580156106c5573d6000803e3d6000fd5b505050506040513d60208110156106db57600080fd5b810190808051906020019092919050505090508073ffffffffffffffffffffffffffffffffffffffff166399275cc7600260009054906101000a900473ffffffffffffffffffffffffffffffffffffffff16600354856040518463ffffffff1660e01b8152600401808473ffffffffffffffffffffffffffffffffffffffff1673ffffffffffffffffffffffffffffffffffffffff1681526020018381526020018281526020019350505050600060405180830381600087803b1580156107a157600080fd5b505af11580156107b5573d6000803e3d6000fd5b505050505050565b6000809054906101000a900473ffffffffffffffffffffffffffffffffffffffff1681565b6000600160009054906101000a900473ffffffffffffffffffffffffffffffffffffffff1673ffffffffffffffffffffffffffffffffffffffff1663358177736040518163ffffffff1660e01b81526004018080602001828103825260078152602001807f424f4e444147450000000000000000000000000000000000000000000000000081525060200191505060206040518083038186803b15801561088857600080fd5b505afa15801561089c573d6000803e3d6000fd5b505050506040513d60208110156108b257600080fd5b810190808051906020019092919050505090508073ffffffffffffffffffffffffffffffffffffffff166399275cc7600260009054906101000a900473ffffffffffffffffffffffffffffffffffffffff16600354856040518463ffffffff1660e01b8152600401808473ffffffffffffffffffffffffffffffffffffffff1673ffffffffffffffffffffffffffffffffffffffff1681526020018381526020018281526020019350505050600060405180830381600087803b15801561097857600080fd5b505af115801561098c573d6000803e3d6000fd5b505050505050565b600080600160009054906101000a900473ffffffffffffffffffffffffffffffffffffffff1673ffffffffffffffffffffffffffffffffffffffff1663358177736040518163ffffffff1660e01b81526004018080602001828103825260098152602001807f5a41505f544f4b454e000000000000000000000000000000000000000000000081525060200191505060206040518083038186803b158015610a3b57600080fd5b505afa158015610a4f573d6000803e3d6000fd5b505050506040513d6020811015610a6557600080fd5b810190808051906020019092919050505090506000600160009054906101000a900473ffffffffffffffffffffffffffffffffffffffff1673ffffffffffffffffffffffffffffffffffffffff1663358177736040518163ffffffff1660e01b81526004018080602001828103825260078152602001807f424f4e444147450000000000000000000000000000000000000000000000000081525060200191505060206040518083038186803b158015610b1e57600080fd5b505afa158015610b32573d6000803e3d6000fd5b505050506040513d6020811015610b4857600080fd5b810190808051906020019092919050505090508173ffffffffffffffffffffffffffffffffffffffff1663095ea7b382866040518363ffffffff1660e01b8152600401808373ffffffffffffffffffffffffffffffffffffffff1673ffffffffffffffffffffffffffffffffffffffff16815260200182815260200192505050602060405180830381600087803b158015610be257600080fd5b505af1158015610bf6573d6000803e3d6000fd5b505050506040513d6020811015610c0c57600080fd5b810190808051906020019092919050505092505050919050565b6004548214610c9d576040517f08c379a000000000000000000000000000000000000000000000000000000000815260040180806020018281038252600e8152602001807f57726f6e6720717565727920496400000000000000000000000000000000000081525060200191505060405180910390fd5b80827f865adeec9f60b83b0c7cd3532731b87fa65046afed9efb1112b8dfb4800f99bb60405160405180910390a3505056fea165627a7a72305820d3ad39260be7a52577809e8496065d84ad45b2b16f2cfaae899f4b2961e7a5860029",
  "source": "pragma solidity ^0.5.0;\n\n// Zap contracts's methods that subscriber can call knowing the addresses\ncontract ZapBridge{\n    function getContract(string memory contractName) public view returns (address); //coordinator\n    function bond(address provider ,bytes32 endpoint, uint256 dots) public;\n    function unbond(address provider ,bytes32 endpoint, uint256 dots) public;\n    function calcZapForDots(address provider, bytes32 endpoint, uint256 dots) external view returns (uint256); //bondage\n    function delegateBond(address holderAddress, address oracleAddress, bytes32 endpoint, uint256 numDots) external returns (uint256 boundZap); //bondage\n    function query(address provider, string calldata queryString, bytes32 endpoint, bytes32[] calldata params) external returns (uint256); //dispatch\n    function approve(address bondage, uint256 amount) public returns (bool); // Zap Token\n}\n\ncontract Subscriber {\n\n    address public owner;\n    ZapBridge public coordinator;\n    address provider;\n    bytes32 endpoint;\n    uint256 query_id;\n\n    event ReceiveResponse(uint256 indexed id, int indexed result);\n\n\n    //Coordinator contract is one single contract that\n    //knows all other Zap contract addresses\n    constructor(address _coordinator, address _provider, bytes32 _endpoint) public{\n        owner = msg.sender;\n        coordinator = ZapBridge(_coordinator);\n        provider = _provider;\n        endpoint = _endpoint;\n    }\n\n    //This function call can be skipped if owner approve and delegateBond for this contract\n    function approve(uint256 amount) public returns (bool){\n      address ZapTokenAddress = coordinator.getContract(\"ZAP_TOKEN\");\n      address BondageAddress = coordinator.getContract(\"BONDAGE\");\n      return ZapBridge(ZapTokenAddress).approve(BondageAddress,amount);\n\n    }\n\n    //This function call can be ommitted if owner call delegateBond directly to Bondage contract\n    //Contract has to hold enough zap approved\n    function bond(uint256 dots) public{\n        address BondageAddress = coordinator.getContract(\"BONDAGE\");\n        return ZapBridge(BondageAddress).bond(provider,endpoint,dots);\n    }\n\n    //This function call can be ommitted if owner call delegateBond directly to Bondage\n    function unbond(uint256 dots) public{\n        address BondageAddress = coordinator.getContract(\"BONDAGE\");\n        return ZapBridge(BondageAddress).bond(provider,endpoint,dots);\n    }\n\n    //Query offchain or onchain provider.\n    function query(string memory queryString, bytes32[] memory params) public returns (uint256) {\n        address dispatchAddress = coordinator.getContract(\"DISPATCH\");\n        query_id = ZapBridge(dispatchAddress).query(provider,queryString,endpoint,params);\n        return query_id;\n    }\n\n    //Implementing callback that will accept provider's respondIntArray\n    //Response method options  are  :respondBytes32Array, respondIntArray, respond1, respond2, respond3, respond4\n    function callback(uint256 _id, int _response) external{\n        require(_id==query_id,\"Wrong query Id\");\n        emit ReceiveResponse(_id,_response);\n        //Implement your logic with _response data here\n    }\n\n}\n",
  "sourcePath": "/Users/miltonli/Documents/Development/subscriber-template/Subscriber_Contract_Example/contracts/subscriber.sol",
  "compiler": {
    "name": "solc",
    "version": "0.5.8+commit.23d335f2.Emscripten.clang"
  },
  "schemaVersion": "3.0.10",
  "updatedAt": "2019-06-07T17:26:23.383Z",
  "devdoc": {
    "methods": {}
  },
  "userdoc": {
    "methods": {}
  }
}